{
  "transactions": [
    {
      "hash": "0xf6b16361b54605aa596ccc7f11b6fd1fd414ef84df8fc022b990f3fc12aa53d4",
      "transactionType": "CALL",
      "contractName": null,
      "contractAddress": "0x3828ddf3dc3bdb4f9f838e498e4b5536bb74230e",
      "function": "deployUniversityProxy(string,address)",
      "arguments": [
        "Kwame Nkrumah University of Science and Technology",
        "0x6912bC40f1446Dd8A2201F797f2c09dca3CeB88c"
      ],
      "transaction": {
        "from": "0x31eee44788ea5ae0c65dbdcb1d1c3ea1d8a4e592",
        "to": "0x3828ddf3dc3bdb4f9f838e498e4b5536bb74230e",
        "gas": "0xb837c",
        "value": "0x0",
        "input": "0x0545b16c00000000000000000000000000000000000000000000000000000000000000400000000000000000000000006912bc40f1446dd8a2201f797f2c09dca3ceb88c00000000000000000000000000000000000000000000000000000000000000324b77616d65204e6b72756d616820556e6976657273697479206f6620536369656e636520616e6420546563686e6f6c6f67790000000000000000000000000000",
        "nonce": "0x10",
        "chainId": "0xaa36a7"
      },
      "additionalContracts": [
        {
          "transactionType": "CREATE",
          "contractName": "BeaconProxy",
          "address": "0x9e0a1bd17c0f0190fb64dabe8cb54e871d3712d3",
          "initCode": "0x60a06040526040516108b63803806108b683398181016040528101906100259190610653565b610035828261007060201b60201c565b8173ffffffffffffffffffffffffffffffffffffffff1660808173ffffffffffffffffffffffffffffffffffffffff16815250505050610700565b61007f8261016060201b60201c565b8173ffffffffffffffffffffffffffffffffffffffff167f1cf3b03a6cf19fa2baba4df148e9dcabedea7f8a5c07840e207e5c089be95d3e60405160405180910390a25f8151111561014d576101478273ffffffffffffffffffffffffffffffffffffffff16635c60da1b6040518163ffffffff1660e01b8152600401602060405180830381865afa158015610117573d5f803e3d5ffd5b505050506040513d601f19601f8201168201806040525081019061013b91906106ad565b826102fb60201b60201c565b5061015c565b61015b61040a60201b60201c565b5b5050565b5f8173ffffffffffffffffffffffffffffffffffffffff163b036101bb57806040517f64ced0ec0000000000000000000000000000000000000000000000000000000081526004016101b291906106e7565b60405180910390fd5b806101ed7fa3f0ad74e5423aebfd80d3ef4346578335a9a72aeaee59ff6cb3582b35133d505f1b61044660201b60201c565b5f015f6101000a81548173ffffffffffffffffffffffffffffffffffffffff021916908373ffffffffffffffffffffffffffffffffffffffff1602179055505f8173ffffffffffffffffffffffffffffffffffffffff16635c60da1b6040518163ffffffff1660e01b8152600401602060405180830381865afa158015610276573d5f803e3d5ffd5b505050506040513d601f19601f8201168201806040525081019061029a91906106ad565b90505f8173ffffffffffffffffffffffffffffffffffffffff163b036102f757806040517f4c9c8ce30000000000000000000000000000000000000000000000000000000081526004016102ee91906106e7565b60405180910390fd5b5050565b60605f61030e848461044f60201b60201c565b905080801561034a57505f61032761046360201b60201c565b118061034957505f8473ffffffffffffffffffffffffffffffffffffffff163b115b5b156103655761035d61046a60201b60201c565b915050610404565b80156103a857836040517f9996b31500000000000000000000000000000000000000000000000000000000815260040161039f91906106e7565b60405180910390fd5b5f6103b761046360201b60201c565b11156103d0576103cb61048760201b60201c565b610402565b6040517fd6bda27500000000000000000000000000000000000000000000000000000000815260040160405180910390fd5b505b92915050565b5f341115610444576040517fb398979f00000000000000000000000000000000000000000000000000000000815260040160405180910390fd5b565b5f819050919050565b5f805f835160208501865af4905092915050565b5f3d905090565b606060405190503d81523d5f602083013e3d602001810160405290565b6040513d5f823e3d81fd5b5f604051905090565b5f80fd5b5f80fd5b5f73ffffffffffffffffffffffffffffffffffffffff82169050919050565b5f6104cc826104a3565b9050919050565b6104dc816104c2565b81146104e6575f80fd5b50565b5f815190506104f7816104d3565b92915050565b5f80fd5b5f80fd5b5f601f19601f8301169050919050565b7f4e487b71000000000000000000000000000000000000000000000000000000005f52604160045260245ffd5b61054b82610505565b810181811067ffffffffffffffff8211171561056a57610569610515565b5b80604052505050565b5f61057c610492565b90506105888282610542565b919050565b5f67ffffffffffffffff8211156105a7576105a6610515565b5b6105b082610505565b9050602081019050919050565b5f5b838110156105da5780820151818401526020810190506105bf565b5f8484015250505050565b5f6105f76105f28461058d565b610573565b90508281526020810184848401111561061357610612610501565b5b61061e8482856105bd565b509392505050565b5f82601f83011261063a576106396104fd565b5b815161064a8482602086016105e5565b91505092915050565b5f80604083850312156106695761066861049b565b5b5f610676858286016104e9565b925050602083015167ffffffffffffffff8111156106975761069661049f565b5b6106a385828601610626565b9150509250929050565b5f602082840312156106c2576106c161049b565b5b5f6106cf848285016104e9565b91505092915050565b6106e1816104c2565b82525050565b5f6020820190506106fa5f8301846106d8565b92915050565b60805161019f6107175f395f60bc015261019f5ff3fe608060405261000c61000e565b005b61001e610019610020565b61009a565b565b5f6100296100b9565b73ffffffffffffffffffffffffffffffffffffffff16635c60da1b6040518163ffffffff1660e01b8152600401602060405180830381865afa158015610071573d5f803e3d5ffd5b505050506040513d601f19601f82011682018060405250810190610095919061013e565b905090565b365f80375f80365f845af43d5f803e805f81146100b5573d5ff35b3d5ffd5b5f7f0000000000000000000000000000000000000000000000000000000000000000905090565b5f80fd5b5f73ffffffffffffffffffffffffffffffffffffffff82169050919050565b5f61010d826100e4565b9050919050565b61011d81610103565b8114610127575f80fd5b50565b5f8151905061013881610114565b92915050565b5f60208284031215610153576101526100e0565b5b5f6101608482850161012a565b9150509291505056fea26469706673582212201fd954ed22beaa9b897b1544ef41b909a670d68a18411e5ee49fc1bf3062e53064736f6c634300081700330000000000000000000000001f442707955f41bfd180a23d88f84e616167a319000000000000000000000000000000000000000000000000000000000000004000000000000000000000000000000000000000000000000000000000000000c4463fd1af00000000000000000000000000000000000000000000000000000000000000600000000000000000000000006912bc40f1446dd8a2201f797f2c09dca3ceb88c00000000000000000000000031eee44788ea5ae0c65dbdcb1d1c3ea1d8a4e59200000000000000000000000000000000000000000000000000000000000000324b77616d65204e6b72756d616820556e6976657273697479206f6620536369656e636520616e6420546563686e6f6c6f6779000000000000000000000000000000000000000000000000000000000000000000000000000000000000"
        }
      ],
      "isFixedGasLimit": false
    },
    {
      "hash": "0xee96d23cac273a96f50e2160d2f645f18e7157f7460702fe0d432a7b728baa00",
      "transactionType": "CALL",
      "contractName": null,
      "contractAddress": "0x3828ddf3dc3bdb4f9f838e498e4b5536bb74230e",
      "function": "deployUniversityProxy(string,address)",
      "arguments": [
        "University of Ghana",
        "0x96353bB2369Ad3946Bc3E97434F916F451899762"
      ],
      "transaction": {
        "from": "0x31eee44788ea5ae0c65dbdcb1d1c3ea1d8a4e592",
        "to": "0x3828ddf3dc3bdb4f9f838e498e4b5536bb74230e",
        "gas": "0x9adc3",
        "value": "0x0",
        "input": "0x0545b16c000000000000000000000000000000000000000000000000000000000000004000000000000000000000000096353bb2369ad3946bc3e97434f916f4518997620000000000000000000000000000000000000000000000000000000000000013556e6976657273697479206f66204768616e6100000000000000000000000000",
        "nonce": "0x11",
        "chainId": "0xaa36a7"
      },
      "additionalContracts": [
        {
          "transactionType": "CREATE",
          "contractName": "BeaconProxy",
          "address": "0xd207b844f595af7a6b43191633d8bf11c9bb8316",
          "initCode": "0x60a06040526040516108b63803806108b683398181016040528101906100259190610653565b610035828261007060201b60201c565b8173ffffffffffffffffffffffffffffffffffffffff1660808173ffffffffffffffffffffffffffffffffffffffff16815250505050610700565b61007f8261016060201b60201c565b8173ffffffffffffffffffffffffffffffffffffffff167f1cf3b03a6cf19fa2baba4df148e9dcabedea7f8a5c07840e207e5c089be95d3e60405160405180910390a25f8151111561014d576101478273ffffffffffffffffffffffffffffffffffffffff16635c60da1b6040518163ffffffff1660e01b8152600401602060405180830381865afa158015610117573d5f803e3d5ffd5b505050506040513d601f19601f8201168201806040525081019061013b91906106ad565b826102fb60201b60201c565b5061015c565b61015b61040a60201b60201c565b5b5050565b5f8173ffffffffffffffffffffffffffffffffffffffff163b036101bb57806040517f64ced0ec0000000000000000000000000000000000000000000000000000000081526004016101b291906106e7565b60405180910390fd5b806101ed7fa3f0ad74e5423aebfd80d3ef4346578335a9a72aeaee59ff6cb3582b35133d505f1b61044660201b60201c565b5f015f6101000a81548173ffffffffffffffffffffffffffffffffffffffff021916908373ffffffffffffffffffffffffffffffffffffffff1602179055505f8173ffffffffffffffffffffffffffffffffffffffff16635c60da1b6040518163ffffffff1660e01b8152600401602060405180830381865afa158015610276573d5f803e3d5ffd5b505050506040513d601f19601f8201168201806040525081019061029a91906106ad565b90505f8173ffffffffffffffffffffffffffffffffffffffff163b036102f757806040517f4c9c8ce30000000000000000000000000000000000000000000000000000000081526004016102ee91906106e7565b60405180910390fd5b5050565b60605f61030e848461044f60201b60201c565b905080801561034a57505f61032761046360201b60201c565b118061034957505f8473ffffffffffffffffffffffffffffffffffffffff163b115b5b156103655761035d61046a60201b60201c565b915050610404565b80156103a857836040517f9996b31500000000000000000000000000000000000000000000000000000000815260040161039f91906106e7565b60405180910390fd5b5f6103b761046360201b60201c565b11156103d0576103cb61048760201b60201c565b610402565b6040517fd6bda27500000000000000000000000000000000000000000000000000000000815260040160405180910390fd5b505b92915050565b5f341115610444576040517fb398979f00000000000000000000000000000000000000000000000000000000815260040160405180910390fd5b565b5f819050919050565b5f805f835160208501865af4905092915050565b5f3d905090565b606060405190503d81523d5f602083013e3d602001810160405290565b6040513d5f823e3d81fd5b5f604051905090565b5f80fd5b5f80fd5b5f73ffffffffffffffffffffffffffffffffffffffff82169050919050565b5f6104cc826104a3565b9050919050565b6104dc816104c2565b81146104e6575f80fd5b50565b5f815190506104f7816104d3565b92915050565b5f80fd5b5f80fd5b5f601f19601f8301169050919050565b7f4e487b71000000000000000000000000000000000000000000000000000000005f52604160045260245ffd5b61054b82610505565b810181811067ffffffffffffffff8211171561056a57610569610515565b5b80604052505050565b5f61057c610492565b90506105888282610542565b919050565b5f67ffffffffffffffff8211156105a7576105a6610515565b5b6105b082610505565b9050602081019050919050565b5f5b838110156105da5780820151818401526020810190506105bf565b5f8484015250505050565b5f6105f76105f28461058d565b610573565b90508281526020810184848401111561061357610612610501565b5b61061e8482856105bd565b509392505050565b5f82601f83011261063a576106396104fd565b5b815161064a8482602086016105e5565b91505092915050565b5f80604083850312156106695761066861049b565b5b5f610676858286016104e9565b925050602083015167ffffffffffffffff8111156106975761069661049f565b5b6106a385828601610626565b9150509250929050565b5f602082840312156106c2576106c161049b565b5b5f6106cf848285016104e9565b91505092915050565b6106e1816104c2565b82525050565b5f6020820190506106fa5f8301846106d8565b92915050565b60805161019f6107175f395f60bc015261019f5ff3fe608060405261000c61000e565b005b61001e610019610020565b61009a565b565b5f6100296100b9565b73ffffffffffffffffffffffffffffffffffffffff16635c60da1b6040518163ffffffff1660e01b8152600401602060405180830381865afa158015610071573d5f803e3d5ffd5b505050506040513d601f19601f82011682018060405250810190610095919061013e565b905090565b365f80375f80365f845af43d5f803e805f81146100b5573d5ff35b3d5ffd5b5f7f0000000000000000000000000000000000000000000000000000000000000000905090565b5f80fd5b5f73ffffffffffffffffffffffffffffffffffffffff82169050919050565b5f61010d826100e4565b9050919050565b61011d81610103565b8114610127575f80fd5b50565b5f8151905061013881610114565b92915050565b5f60208284031215610153576101526100e0565b5b5f6101608482850161012a565b9150509291505056fea26469706673582212201fd954ed22beaa9b897b1544ef41b909a670d68a18411e5ee49fc1bf3062e53064736f6c634300081700330000000000000000000000001f442707955f41bfd180a23d88f84e616167a319000000000000000000000000000000000000000000000000000000000000004000000000000000000000000000000000000000000000000000000000000000a4463fd1af000000000000000000000000000000000000000000000000000000000000006000000000000000000000000096353bb2369ad3946bc3e97434f916f45189976200000000000000000000000031eee44788ea5ae0c65dbdcb1d1c3ea1d8a4e5920000000000000000000000000000000000000000000000000000000000000013556e6976657273697479206f66204768616e610000000000000000000000000000000000000000000000000000000000000000000000000000000000"
        }
      ],
      "isFixedGasLimit": false
    },
    {
      "hash": "0x6b4c7e371f3cc64404992777edf2c63568a26f9ccae6e1d50705093e4fa43a04",
      "transactionType": "CALL",
      "contractName": null,
      "contractAddress": "0x3828ddf3dc3bdb4f9f838e498e4b5536bb74230e",
      "function": "deployUniversityProxy(string,address)",
      "arguments": [
        "University of Cape Coast",
        "0xd673A8bEBDe8cCF133078eDf7B44005cC4f1DdcD"
      ],
      "transaction": {
        "from": "0x31eee44788ea5ae0c65dbdcb1d1c3ea1d8a4e592",
        "to": "0x3828ddf3dc3bdb4f9f838e498e4b5536bb74230e",
        "gas": "0x9ae06",
        "value": "0x0",
        "input": "0x0545b16c0000000000000000000000000000000000000000000000000000000000000040000000000000000000000000d673a8bebde8ccf133078edf7b44005cc4f1ddcd0000000000000000000000000000000000000000000000000000000000000018556e6976657273697479206f66204361706520436f6173740000000000000000",
        "nonce": "0x12",
        "chainId": "0xaa36a7"
      },
      "additionalContracts": [
        {
          "transactionType": "CREATE",
          "contractName": "BeaconProxy",
          "address": "0x049e478b03eb3a2f8b83c0e58895488b51ee971c",
          "initCode": "0x60a06040526040516108b63803806108b683398181016040528101906100259190610653565b610035828261007060201b60201c565b8173ffffffffffffffffffffffffffffffffffffffff1660808173ffffffffffffffffffffffffffffffffffffffff16815250505050610700565b61007f8261016060201b60201c565b8173ffffffffffffffffffffffffffffffffffffffff167f1cf3b03a6cf19fa2baba4df148e9dcabedea7f8a5c07840e207e5c089be95d3e60405160405180910390a25f8151111561014d576101478273ffffffffffffffffffffffffffffffffffffffff16635c60da1b6040518163ffffffff1660e01b8152600401602060405180830381865afa158015610117573d5f803e3d5ffd5b505050506040513d601f19601f8201168201806040525081019061013b91906106ad565b826102fb60201b60201c565b5061015c565b61015b61040a60201b60201c565b5b5050565b5f8173ffffffffffffffffffffffffffffffffffffffff163b036101bb57806040517f64ced0ec0000000000000000000000000000000000000000000000000000000081526004016101b291906106e7565b60405180910390fd5b806101ed7fa3f0ad74e5423aebfd80d3ef4346578335a9a72aeaee59ff6cb3582b35133d505f1b61044660201b60201c565b5f015f6101000a81548173ffffffffffffffffffffffffffffffffffffffff021916908373ffffffffffffffffffffffffffffffffffffffff1602179055505f8173ffffffffffffffffffffffffffffffffffffffff16635c60da1b6040518163ffffffff1660e01b8152600401602060405180830381865afa158015610276573d5f803e3d5ffd5b505050506040513d601f19601f8201168201806040525081019061029a91906106ad565b90505f8173ffffffffffffffffffffffffffffffffffffffff163b036102f757806040517f4c9c8ce30000000000000000000000000000000000000000000000000000000081526004016102ee91906106e7565b60405180910390fd5b5050565b60605f61030e848461044f60201b60201c565b905080801561034a57505f61032761046360201b60201c565b118061034957505f8473ffffffffffffffffffffffffffffffffffffffff163b115b5b156103655761035d61046a60201b60201c565b915050610404565b80156103a857836040517f9996b31500000000000000000000000000000000000000000000000000000000815260040161039f91906106e7565b60405180910390fd5b5f6103b761046360201b60201c565b11156103d0576103cb61048760201b60201c565b610402565b6040517fd6bda27500000000000000000000000000000000000000000000000000000000815260040160405180910390fd5b505b92915050565b5f341115610444576040517fb398979f00000000000000000000000000000000000000000000000000000000815260040160405180910390fd5b565b5f819050919050565b5f805f835160208501865af4905092915050565b5f3d905090565b606060405190503d81523d5f602083013e3d602001810160405290565b6040513d5f823e3d81fd5b5f604051905090565b5f80fd5b5f80fd5b5f73ffffffffffffffffffffffffffffffffffffffff82169050919050565b5f6104cc826104a3565b9050919050565b6104dc816104c2565b81146104e6575f80fd5b50565b5f815190506104f7816104d3565b92915050565b5f80fd5b5f80fd5b5f601f19601f8301169050919050565b7f4e487b71000000000000000000000000000000000000000000000000000000005f52604160045260245ffd5b61054b82610505565b810181811067ffffffffffffffff8211171561056a57610569610515565b5b80604052505050565b5f61057c610492565b90506105888282610542565b919050565b5f67ffffffffffffffff8211156105a7576105a6610515565b5b6105b082610505565b9050602081019050919050565b5f5b838110156105da5780820151818401526020810190506105bf565b5f8484015250505050565b5f6105f76105f28461058d565b610573565b90508281526020810184848401111561061357610612610501565b5b61061e8482856105bd565b509392505050565b5f82601f83011261063a576106396104fd565b5b815161064a8482602086016105e5565b91505092915050565b5f80604083850312156106695761066861049b565b5b5f610676858286016104e9565b925050602083015167ffffffffffffffff8111156106975761069661049f565b5b6106a385828601610626565b9150509250929050565b5f602082840312156106c2576106c161049b565b5b5f6106cf848285016104e9565b91505092915050565b6106e1816104c2565b82525050565b5f6020820190506106fa5f8301846106d8565b92915050565b60805161019f6107175f395f60bc015261019f5ff3fe608060405261000c61000e565b005b61001e610019610020565b61009a565b565b5f6100296100b9565b73ffffffffffffffffffffffffffffffffffffffff16635c60da1b6040518163ffffffff1660e01b8152600401602060405180830381865afa158015610071573d5f803e3d5ffd5b505050506040513d601f19601f82011682018060405250810190610095919061013e565b905090565b365f80375f80365f845af43d5f803e805f81146100b5573d5ff35b3d5ffd5b5f7f0000000000000000000000000000000000000000000000000000000000000000905090565b5f80fd5b5f73ffffffffffffffffffffffffffffffffffffffff82169050919050565b5f61010d826100e4565b9050919050565b61011d81610103565b8114610127575f80fd5b50565b5f8151905061013881610114565b92915050565b5f60208284031215610153576101526100e0565b5b5f6101608482850161012a565b9150509291505056fea26469706673582212201fd954ed22beaa9b897b1544ef41b909a670d68a18411e5ee49fc1bf3062e53064736f6c634300081700330000000000000000000000001f442707955f41bfd180a23d88f84e616167a319000000000000000000000000000000000000000000000000000000000000004000000000000000000000000000000000000000000000000000000000000000a4463fd1af0000000000000000000000000000000000000000000000000000000000000060000000000000000000000000d673a8bebde8ccf133078edf7b44005cc4f1ddcd00000000000000000000000031eee44788ea5ae0c65dbdcb1d1c3ea1d8a4e5920000000000000000000000000000000000000000000000000000000000000018556e6976657273697479206f66204361706520436f617374000000000000000000000000000000000000000000000000000000000000000000000000"
        }
      ],
      "isFixedGasLimit": false
    }
  ],
  "receipts": [
    {
      "status": "0x1",
      "cumulativeGasUsed": "0x350d122",
      "logs": [
        {
          "address": "0x9e0a1bd17c0f0190fb64dabe8cb54e871d3712d3",
          "topics": [
            "0x1cf3b03a6cf19fa2baba4df148e9dcabedea7f8a5c07840e207e5c089be95d3e",
            "0x0000000000000000000000001f442707955f41bfd180a23d88f84e616167a319"
          ],
          "data": "0x",
          "blockHash": "0x53ef93f9a5619648347c31f39066d1b90fb3ae7c00f93efb28d53b43c4c7aed8",
          "blockNumber": "0x98a404",
          "blockTimestamp": "0x695fc874",
          "transactionHash": "0xf6b16361b54605aa596ccc7f11b6fd1fd414ef84df8fc022b990f3fc12aa53d4",
          "transactionIndex": "0x4a",
          "logIndex": "0x2bf",
          "removed": false
        },
        {
          "address": "0x9e0a1bd17c0f0190fb64dabe8cb54e871d3712d3",
          "topics": [
            "0xc7f505b2f371ae2175ee4913f4499e1f2633a7b5936321eed1cdaeb6115181d2"
          ],
          "data": "0x0000000000000000000000000000000000000000000000000000000000000001",
          "blockHash": "0x53ef93f9a5619648347c31f39066d1b90fb3ae7c00f93efb28d53b43c4c7aed8",
          "blockNumber": "0x98a404",
          "blockTimestamp": "0x695fc874",
          "transactionHash": "0xf6b16361b54605aa596ccc7f11b6fd1fd414ef84df8fc022b990f3fc12aa53d4",
          "transactionIndex": "0x4a",
          "logIndex": "0x2c0",
          "removed": false
        },
        {
          "address": "0x3828ddf3dc3bdb4f9f838e498e4b5536bb74230e",
          "topics": [
            "0x761199446f82b5721b0308e5fce3b33408cf80f91d15c36a137bbd039b9769cd",
            "0x0000000000000000000000000000000000000000000000000000000000000000",
            "0x0000000000000000000000009e0a1bd17c0f0190fb64dabe8cb54e871d3712d3",
            "0x0000000000000000000000006912bc40f1446dd8a2201f797f2c09dca3ceb88c"
          ],
          "data": "0x000000000000000000000000000000000000000000000000000000000000004000000000000000000000000000000000000000000000000000000000695fc87400000000000000000000000000000000000000000000000000000000000000324b77616d65204e6b72756d616820556e6976657273697479206f6620536369656e636520616e6420546563686e6f6c6f67790000000000000000000000000000",
          "blockHash": "0x53ef93f9a5619648347c31f39066d1b90fb3ae7c00f93efb28d53b43c4c7aed8",
          "blockNumber": "0x98a404",
          "blockTimestamp": "0x695fc874",
          "transactionHash": "0xf6b16361b54605aa596ccc7f11b6fd1fd414ef84df8fc022b990f3fc12aa53d4",
          "transactionIndex": "0x4a",
          "logIndex": "0x2c1",
          "removed": false
        }
      ],
      "logsBloom": "0x00000000000000000000000000000000000000000000000000000000000000000000000000000000000000000000000000000000000000010000000000000000000000000000000000000000001000000000000004000000000000000000100000000000020000000000000000000820000000000000000000000000006000000000000000000000000800000000080000000000000080010001000000000000000000000000000001000000000000000000400020000000040000000000000000000000000000000000000000000021200000000005000000800000000020000000000000000000000000000000000000000000000000000000000010080000",
      "type": "0x0",
      "transactionHash": "0xf6b16361b54605aa596ccc7f11b6fd1fd414ef84df8fc022b990f3fc12aa53d4",
      "transactionIndex": "0x4a",
      "blockHash": "0x53ef93f9a5619648347c31f39066d1b90fb3ae7c00f93efb28d53b43c4c7aed8",
      "blockNumber": "0x98a404",
      "gasUsed": "0x855ee",
      "effectiveGasPrice": "0x12d241a",
      "from": "0x31eee44788ea5ae0c65dbdcb1d1c3ea1d8a4e592",
      "to": "0x3828ddf3dc3bdb4f9f838e498e4b5536bb74230e",
      "contractAddress": null
    },
    {
      "status": "0x1",
      "cumulativeGasUsed": "0x357d2fe",
      "logs": [
        {
          "address": "0xd207b844f595af7a6b43191633d8bf11c9bb8316",
          "topics": [
            "0x1cf3b03a6cf19fa2baba4df148e9dcabedea7f8a5c07840e207e5c089be95d3e",
            "0x0000000000000000000000001f442707955f41bfd180a23d88f84e616167a319"
          ],
          "data": "0x",
          "blockHash": "0x53ef93f9a5619648347c31f39066d1b90fb3ae7c00f93efb28d53b43c4c7aed8",
          "blockNumber": "0x98a404",
          "blockTimestamp": "0x695fc874",
          "transactionHash": "0xee96d23cac273a96f50e2160d2f645f18e7157f7460702fe0d432a7b728baa00",
          "transactionIndex": "0x4b",
          "logIndex": "0x2c2",
          "removed": false
        },
        {
          "address": "0xd207b844f595af7a6b43191633d8bf11c9bb8316",
          "topics": [
            "0xc7f505b2f371ae2175ee4913f4499e1f2633a7b5936321eed1cdaeb6115181d2"
          ],
          "data": "0x0000000000000000000000000000000000000000000000000000000000000001",
          "blockHash": "0x53ef93f9a5619648347c31f39066d1b90fb3ae7c00f93efb28d53b43c4c7aed8",
          "blockNumber": "0x98a404",
          "blockTimestamp": "0x695fc874",
          "transactionHash": "0xee96d23cac273a96f50e2160d2f645f18e7157f7460702fe0d432a7b728baa00",
          "transactionIndex": "0x4b",
          "logIndex": "0x2c3",
          "removed": false
        },
        {
          "address": "0x3828ddf3dc3bdb4f9f838e498e4b5536bb74230e",
          "topics": [
            "0x761199446f82b5721b0308e5fce3b33408cf80f91d15c36a137bbd039b9769cd",
            "0x0000000000000000000000000000000000000000000000000000000000000001",
            "0x000000000000000000000000d207b844f595af7a6b43191633d8bf11c9bb8316",
            "0x00000000000000000000000096353bb2369ad3946bc3e97434f916f451899762"
          ],
          "data": "0x000000000000000000000000000000000000000000000000000000000000004000000000000000000000000000000000000000000000000000000000695fc8740000000000000000000000000000000000000000000000000000000000000013556e6976657273697479206f66204768616e6100000000000000000000000000",
          "blockHash": "0x53ef93f9a5619648347c31f39066d1b90fb3ae7c00f93efb28d53b43c4c7aed8",
          "blockNumber": "0x98a404",
          "blockTimestamp": "0x695fc874",
          "transactionHash": "0xee96d23cac273a96f50e2160d2f645f18e7157f7460702fe0d432a7b728baa00",
          "transactionIndex": "0x4b",
          "logIndex": "0x2c4",
          "removed": false
        }
      ],
      "logsBloom": "0x000000000000000000000000800000000000000000000000000000000000000000000000000000000000000000000000000000000000000100000000000400000000000000000000000000000010000000000000050400000000000000040000000000000000000000000000000000000a0000000000000000000000006000000000000000000000000800000000080000000000000080000001000000000000000000000000000000000000000000000000000004000000040000000000001000000000000000000000000000000020080000000005000000800000000040000000000000000000000000000000000000000000000010000000000010000000",
      "type": "0x0",
      "transactionHash": "0xee96d23cac273a96f50e2160d2f645f18e7157f7460702fe0d432a7b728baa00",
      "transactionIndex": "0x4b",
      "blockHash": "0x53ef93f9a5619648347c31f39066d1b90fb3ae7c00f93efb28d53b43c4c7aed8",
      "blockNumber": "0x98a404",
      "gasUsed": "0x701dc",
      "effectiveGasPrice": "0x12d241a",
      "from": "0x31eee44788ea5ae0c65dbdcb1d1c3ea1d8a4e592",
      "to": "0x3828ddf3dc3bdb4f9f838e498e4b5536bb74230e",
      "contractAddress": null
    },
    {
      "status": "0x1",
      "cumulativeGasUsed": "0x35fa4a7",
      "logs": [
        {
          "address": "0x049e478b03eb3a2f8b83c0e58895488b51ee971c",
          "topics": [
            "0x1cf3b03a6cf19fa2baba4df148e9dcabedea7f8a5c07840e207e5c089be95d3e",
            "0x0000000000000000000000001f442707955f41bfd180a23d88f84e616167a319"
          ],
          "data": "0x",
          "blockHash": "0x53ef93f9a5619648347c31f39066d1b90fb3ae7c00f93efb28d53b43c4c7aed8",
          "blockNumber": "0x98a404",
          "blockTimestamp": "0x695fc874",
          "transactionHash": "0x6b4c7e371f3cc64404992777edf2c63568a26f9ccae6e1d50705093e4fa43a04",
          "transactionIndex": "0x4d",
          "logIndex": "0x2c5",
          "removed": false
        },
        {
          "address": "0x049e478b03eb3a2f8b83c0e58895488b51ee971c",
          "topics": [
            "0xc7f505b2f371ae2175ee4913f4499e1f2633a7b5936321eed1cdaeb6115181d2"
          ],
          "data": "0x0000000000000000000000000000000000000000000000000000000000000001",
          "blockHash": "0x53ef93f9a5619648347c31f39066d1b90fb3ae7c00f93efb28d53b43c4c7aed8",
          "blockNumber": "0x98a404",
          "blockTimestamp": "0x695fc874",
          "transactionHash": "0x6b4c7e371f3cc64404992777edf2c63568a26f9ccae6e1d50705093e4fa43a04",
          "transactionIndex": "0x4d",
          "logIndex": "0x2c6",
          "removed": false
        },
        {
          "address": "0x3828ddf3dc3bdb4f9f838e498e4b5536bb74230e",
          "topics": [
            "0x761199446f82b5721b0308e5fce3b33408cf80f91d15c36a137bbd039b9769cd",
            "0x0000000000000000000000000000000000000000000000000000000000000002",
            "0x000000000000000000000000049e478b03eb3a2f8b83c0e58895488b51ee971c",
            "0x000000000000000000000000d673a8bebde8ccf133078edf7b44005cc4f1ddcd"
          ],
          "data": "0x000000000000000000000000000000000000000000000000000000000000004000000000000000000000000000000000000000000000000000000000695fc8740000000000000000000000000000000000000000000000000000000000000018556e6976657273697479206f66204361706520436f6173740000000000000000",
          "blockHash": "0x53ef93f9a5619648347c31f39066d1b90fb3ae7c00f93efb28d53b43c4c7aed8",
          "blockNumber": "0x98a404",
          "blockTimestamp": "0x695fc874",
          "transactionHash": "0x6b4c7e371f3cc64404992777edf2c63568a26f9ccae6e1d50705093e4fa43a04",
          "transactionIndex": "0x4d",
          "logIndex": "0x2c7",
          "removed": false
        }
      ],
      "logsBloom": "0x04000000000000000000000000000000000000000000000000000000000000000000000000000000000004000000000000000000000000010000000000000000000000000000000000000000001000000000000004000000000000000000000000000000000000000000000000000000000000000000000000000000106040000000000000000002000800000000080000002000000080000001020000000000001000000000000000000100000000000000000000000000040000000000000000000000000000000020000000000020000000000005000000800000000000000000000000000000000080000000000000000000008000000000000010000000",
      "type": "0x0",
      "transactionHash": "0x6b4c7e371f3cc64404992777edf2c63568a26f9ccae6e1d50705093e4fa43a04",
      "transactionIndex": "0x4d",
      "blockHash": "0x53ef93f9a5619648347c31f39066d1b90fb3ae7c00f93efb28d53b43c4c7aed8",
      "blockNumber": "0x98a404",
      "gasUsed": "0x7020c",
      "effectiveGasPrice": "0x12d241a",
      "from": "0x31eee44788ea5ae0c65dbdcb1d1c3ea1d8a4e592",
      "to": "0x3828ddf3dc3bdb4f9f838e498e4b5536bb74230e",
      "contractAddress": null
    }
  ],
  "libraries": [],
  "pending": [],
  "returns": {},
  "timestamp": 1767884918806,
  "chain": 11155111,
  "commit": "0a1d2c8"
}